{
  "_format": "hh-sol-artifact-1",
  "contractName": "Nesters",
  "sourceName": "contracts/Nesters.sol",
  "abi": [
    {
      "inputs": [],
      "stateMutability": "nonpayable",
      "type": "constructor"
    },
    {
      "inputs": [
        {
          "internalType": "uint256",
          "name": "_id",
          "type": "uint256"
        }
      ],
      "name": "acceptOffer",
      "outputs": [],
      "stateMutability": "nonpayable",
      "type": "function"
    },
    {
      "inputs": [
        {
          "internalType": "uint256",
          "name": "_id",
          "type": "uint256"
        },
        {
          "internalType": "uint256",
          "name": "_price",
          "type": "uint256"
        },
        {
          "internalType": "uint256",
          "name": "_colateral",
          "type": "uint256"
        }
      ],
      "name": "activeHouse",
      "outputs": [],
      "stateMutability": "nonpayable",
      "type": "function"
    },
    {
      "inputs": [],
      "name": "contractOwner",
      "outputs": [
        {
          "internalType": "address",
          "name": "",
          "type": "address"
        }
      ],
      "stateMutability": "view",
      "type": "function"
    },
    {
      "inputs": [
        {
          "internalType": "uint256",
          "name": "_now",
          "type": "uint256"
        }
      ],
      "name": "getActiveHouses",
      "outputs": [
        {
          "internalType": "uint256[]",
          "name": "",
          "type": "uint256[]"
        }
      ],
      "stateMutability": "nonpayable",
      "type": "function"
    },
    {
      "inputs": [],
      "name": "getToVoted",
      "outputs": [
        {
          "components": [
            {
              "internalType": "uint256",
              "name": "ID",
              "type": "uint256"
            },
            {
              "internalType": "uint256",
              "name": "houseID",
              "type": "uint256"
            },
            {
              "internalType": "address",
              "name": "tenant",
              "type": "address"
            },
            {
              "internalType": "uint256",
              "name": "price",
              "type": "uint256"
            },
            {
              "internalType": "uint256",
              "name": "colateral",
              "type": "uint256"
            },
            {
              "internalType": "uint256",
              "name": "startDate",
              "type": "uint256"
            },
            {
              "internalType": "uint256",
              "name": "rentingPeriod",
              "type": "uint256"
            },
            {
              "internalType": "bool",
              "name": "voted",
              "type": "bool"
            },
            {
              "internalType": "int256",
              "name": "tenantColateral",
              "type": "int256"
            },
            {
              "internalType": "int256",
              "name": "landlordColateral",
              "type": "int256"
            },
            {
              "internalType": "int256",
              "name": "votedColateral",
              "type": "int256"
            }
          ],
          "internalType": "struct Nesters.Transaction[]",
          "name": "",
          "type": "tuple[]"
        }
      ],
      "stateMutability": "view",
      "type": "function"
    },
    {
      "inputs": [
        {
          "internalType": "address",
          "name": "_addr",
          "type": "address"
        }
      ],
      "name": "getUser",
      "outputs": [
        {
          "components": [
            {
              "internalType": "string",
              "name": "name",
              "type": "string"
            },
            {
              "internalType": "uint256[]",
              "name": "properties",
              "type": "uint256[]"
            },
            {
              "internalType": "int256",
              "name": "reputationToken",
              "type": "int256"
            },
            {
              "internalType": "uint256",
              "name": "votingToken",
              "type": "uint256"
            }
          ],
          "internalType": "struct Nesters.User",
          "name": "",
          "type": "tuple"
        }
      ],
      "stateMutability": "view",
      "type": "function"
    },
    {
      "inputs": [
        {
          "internalType": "uint256",
          "name": "",
          "type": "uint256"
        }
      ],
      "name": "histories",
      "outputs": [
        {
          "internalType": "uint256",
          "name": "ID",
          "type": "uint256"
        },
        {
          "internalType": "uint256",
          "name": "houseID",
          "type": "uint256"
        },
        {
          "internalType": "address",
          "name": "tenant",
          "type": "address"
        },
        {
          "internalType": "uint256",
          "name": "price",
          "type": "uint256"
        },
        {
          "internalType": "uint256",
          "name": "colateral",
          "type": "uint256"
        },
        {
          "internalType": "uint256",
          "name": "startDate",
          "type": "uint256"
        },
        {
          "internalType": "uint256",
          "name": "rentingPeriod",
          "type": "uint256"
        },
        {
          "internalType": "bool",
          "name": "voted",
          "type": "bool"
        },
        {
          "internalType": "int256",
          "name": "tenantColateral",
          "type": "int256"
        },
        {
          "internalType": "int256",
          "name": "landlordColateral",
          "type": "int256"
        },
        {
          "internalType": "int256",
          "name": "votedColateral",
          "type": "int256"
        }
      ],
      "stateMutability": "view",
      "type": "function"
    },
    {
      "inputs": [
        {
          "internalType": "uint256",
          "name": "",
          "type": "uint256"
        }
      ],
      "name": "houses",
      "outputs": [
        {
          "internalType": "uint256",
          "name": "ID",
          "type": "uint256"
        },
        {
          "internalType": "address",
          "name": "owner",
          "type": "address"
        },
        {
          "internalType": "string",
          "name": "physicalAddr",
          "type": "string"
        },
        {
          "internalType": "bool",
          "name": "active",
          "type": "bool"
        },
        {
          "internalType": "uint256",
          "name": "price",
          "type": "uint256"
        },
        {
          "internalType": "uint256",
          "name": "colateral",
          "type": "uint256"
        },
        {
          "internalType": "bool",
          "name": "offer",
          "type": "bool"
        },
        {
          "internalType": "address",
          "name": "tenant",
          "type": "address"
        },
        {
          "internalType": "uint256",
          "name": "startDate",
          "type": "uint256"
        },
        {
          "internalType": "uint256",
          "name": "rentingPeriod",
          "type": "uint256"
        }
      ],
      "stateMutability": "view",
      "type": "function"
    },
    {
      "inputs": [
        {
          "internalType": "uint256",
          "name": "_id",
          "type": "uint256"
        },
        {
          "internalType": "uint256",
          "name": "_startDate",
          "type": "uint256"
        },
        {
          "internalType": "uint256",
          "name": "_rentingPeriod",
          "type": "uint256"
        }
      ],
      "name": "makeOffer",
      "outputs": [],
      "stateMutability": "nonpayable",
      "type": "function"
    },
    {
      "inputs": [
        {
          "internalType": "address",
          "name": "_owner",
          "type": "address"
        },
        {
          "internalType": "string",
          "name": "_physicalAddr",
          "type": "string"
        },
        {
          "internalType": "uint256",
          "name": "_id",
          "type": "uint256"
        }
      ],
      "name": "mintHouse",
      "outputs": [],
      "stateMutability": "nonpayable",
      "type": "function"
    },
    {
      "inputs": [
        {
          "internalType": "address",
          "name": "_addr",
          "type": "address"
        },
        {
          "internalType": "string",
          "name": "_name",
          "type": "string"
        }
      ],
      "name": "registerUser",
      "outputs": [],
      "stateMutability": "nonpayable",
      "type": "function"
    },
    {
      "inputs": [
        {
          "internalType": "uint256",
          "name": "_tranID",
          "type": "uint256"
        },
        {
          "internalType": "int256",
          "name": "_price",
          "type": "int256"
        },
        {
          "internalType": "int256",
          "name": "_role",
          "type": "int256"
        }
      ],
      "name": "setColateral",
      "outputs": [],
      "stateMutability": "nonpayable",
      "type": "function"
    }
  ],
  "bytecode": "0x6080604052600f67ffffffffffffffff81111562000046577f4e487b7100000000000000000000000000000000000000000000000000000000600052604160045260246000fd5b604051908082528060200260200182016040528015620000755781602001602082028036833780820191505090505b50600190805190602001906200008d929190620000ea565b503480156200009b57600080fd5b50336000806101000a81548173ffffffffffffffffffffffffffffffffffffffff021916908373ffffffffffffffffffffffffffffffffffffffff16021790555060006005819055506200015b565b82805482825590600052602060002090810192821562000129579160200282015b82811115620001285782518255916020019190600101906200010b565b5b5090506200013891906200013c565b5090565b5b80821115620001575760008160009055506001016200013d565b5090565b612f50806200016b6000396000f3fe608060405234801561001057600080fd5b50600436106100b45760003560e01c8063aeda852f11610071578063aeda852f146101a7578063b86e81a5146101e0578063c815729d146101fe578063ce606ee01461021a578063e210a72d14610238578063e6e72b3e14610254576100b4565b80630ea126f9146100b957806349d9b4a5146100d557806356564b7c146100f157806363f82c3f1461012b5780636f77926b1461015b578063980ee2491461018b575b600080fd5b6100d360048036038101906100ce91906120e6565b610270565b005b6100ef60048036038101906100ea919061213a565b6104fc565b005b61010b600480360381019061010691906121a1565b610945565b6040516101229b9a99989796959493929190612aa4565b60405180910390f35b610145600480360381019061014091906121a1565b6109cc565b60405161015291906128bd565b60405180910390f35b610175600480360381019061017091906120bd565b610ba1565b60405161018291906129df565b60405180910390f35b6101a560048036038101906101a09190612219565b610cf8565b005b6101c160048036038101906101bc91906121a1565b610e2f565b6040516101d79a99989796959493929190612a01565b60405180910390f35b6101e8610f65565b6040516101f5919061289b565b60405180910390f35b610218600480360381019061021391906121a1565b611176565b005b61022261131a565b60405161022f9190612880565b60405180910390f35b610252600480360381019061024d9190612219565b61133e565b005b61026e600480360381019061026991906121ca565b6113fd565b005b600061027b826118a3565b116102bb576040517f08c379a00000000000000000000000000000000000000000000000000000000081526004016102b2906128df565b60405180910390fd5b6000610390600360008573ffffffffffffffffffffffffffffffffffffffff1673ffffffffffffffffffffffffffffffffffffffff168152602001908152602001600020600001805461030d90612dbc565b80601f016020809104026020016040519081016040528092919081815260200182805461033990612dbc565b80156103865780601f1061035b57610100808354040283529160200191610386565b820191906000526020600020905b81548152906001019060200180831161036957829003601f168201915b50505050506118a3565b146103d0576040517f08c379a00000000000000000000000000000000000000000000000000000000081526004016103c79061295f565b60405180910390fd5b60006040518060800160405280838152602001600f67ffffffffffffffff811115610424577f4e487b7100000000000000000000000000000000000000000000000000000000600052604160045260246000fd5b6040519080825280602002602001820160405280156104525781602001602082028036833780820191505090505b508152602001600081526020016000815250905080600360008573ffffffffffffffffffffffffffffffffffffffff1673ffffffffffffffffffffffffffffffffffffffff16815260200190815260200160002060008201518160000190805190602001906104c2929190611e8c565b5060208201518160010190805190602001906104df929190611f12565b506040820151816002015560608201518160030155905050505050565b60008054906101000a900473ffffffffffffffffffffffffffffffffffffffff1673ffffffffffffffffffffffffffffffffffffffff163373ffffffffffffffffffffffffffffffffffffffff161461058a576040517f08c379a0000000000000000000000000000000000000000000000000000000008152600401610581906128ff565b60405180910390fd5b60006002600083815260200190815260200160002060000154146105e3576040517f08c379a00000000000000000000000000000000000000000000000000000000081526004016105da906129bf565b60405180910390fd5b60006106b8600360008673ffffffffffffffffffffffffffffffffffffffff1673ffffffffffffffffffffffffffffffffffffffff168152602001908152602001600020600001805461063590612dbc565b80601f016020809104026020016040519081016040528092919081815260200182805461066190612dbc565b80156106ae5780601f10610683576101008083540402835291602001916106ae565b820191906000526020600020905b81548152906001019060200180831161069157829003601f168201915b50505050506118a3565b116106f8576040517f08c379a00000000000000000000000000000000000000000000000000000000081526004016106ef9061299f565b60405180910390fd5b606060006040518061016001604052808481526020018673ffffffffffffffffffffffffffffffffffffffff1681526020018581526020016000151581526020016000815260200160008152602001600015158152602001600073ffffffffffffffffffffffffffffffffffffffff168152602001600081526020016000815260200183815250905080600260008581526020019081526020016000206000820151816000015560208201518160010160006101000a81548173ffffffffffffffffffffffffffffffffffffffff021916908373ffffffffffffffffffffffffffffffffffffffff1602179055506040820151816002019080519060200190610802929190611e8c565b5060608201518160030160006101000a81548160ff0219169083151502179055506080820151816004015560a0820151816005015560c08201518160060160006101000a81548160ff02191690831515021790555060e08201518160060160016101000a81548173ffffffffffffffffffffffffffffffffffffffff021916908373ffffffffffffffffffffffffffffffffffffffff160217905550610100820151816007015561012082015181600801556101408201518160090190805190602001906108d1929190611f12565b50905050600360008673ffffffffffffffffffffffffffffffffffffffff1673ffffffffffffffffffffffffffffffffffffffff1681526020019081526020016000206001018390806001815401808255809150506001900390600052602060002001600090919091909150555050505050565b60046020528060005260406000206000915090508060000154908060010154908060020160009054906101000a900473ffffffffffffffffffffffffffffffffffffffff16908060030154908060040154908060050154908060060154908060070160009054906101000a900460ff169080600801549080600901549080600a015490508b565b606060005b600180549050811015610b4857600060018281548110610a1a577f4e487b7100000000000000000000000000000000000000000000000000000000600052603260045260246000fd5b9060005260206000200154118015610a9757506002600060018381548110610a6b577f4e487b7100000000000000000000000000000000000000000000000000000000600052603260045260246000fd5b9060005260206000200154815260200190815260200160002060030160009054906101000a900460ff16155b15610b3557610aea60018281548110610ad9577f4e487b7100000000000000000000000000000000000000000000000000000000600052603260045260246000fd5b9060005260206000200154846118ae565b600060018281548110610b26577f4e487b7100000000000000000000000000000000000000000000000000000000600052603260045260246000fd5b90600052602060002001819055505b8080610b4090612dee565b9150506109d1565b506001805480602002602001604051908101604052809291908181526020018280548015610b9557602002820191906000526020600020905b815481526020019060010190808311610b81575b50505050509050919050565b610ba9611f5f565b600360008373ffffffffffffffffffffffffffffffffffffffff1673ffffffffffffffffffffffffffffffffffffffff168152602001908152602001600020604051806080016040529081600082018054610c0390612dbc565b80601f0160208091040260200160405190810160405280929190818152602001828054610c2f90612dbc565b8015610c7c5780601f10610c5157610100808354040283529160200191610c7c565b820191906000526020600020905b815481529060010190602001808311610c5f57829003601f168201915b5050505050815260200160018201805480602002602001604051908101604052809291908181526020018280548015610cd457602002820191906000526020600020905b815481526020019060010190808311610cc0575b50505050508152602001600282015481526020016003820154815250509050919050565b3373ffffffffffffffffffffffffffffffffffffffff166002600085815260200190815260200160002060010160009054906101000a900473ffffffffffffffffffffffffffffffffffffffff1673ffffffffffffffffffffffffffffffffffffffff1614610d9c576040517f08c379a0000000000000000000000000000000000000000000000000000000008152600401610d939061291f565b60405180910390fd5b81600260008581526020019081526020016000206004018190555080600260008581526020019081526020016000206005018190555060016002600085815260200190815260200160002060030160006101000a81548160ff0219169083151502179055506001839080600181540180825580915050600190039060005260206000200160009091909190915055505050565b60026020528060005260406000206000915090508060000154908060010160009054906101000a900473ffffffffffffffffffffffffffffffffffffffff1690806002018054610e7e90612dbc565b80601f0160208091040260200160405190810160405280929190818152602001828054610eaa90612dbc565b8015610ef75780601f10610ecc57610100808354040283529160200191610ef7565b820191906000526020600020905b815481529060010190602001808311610eda57829003601f168201915b5050505050908060030160009054906101000a900460ff16908060040154908060050154908060060160009054906101000a900460ff16908060060160019054906101000a900473ffffffffffffffffffffffffffffffffffffffff1690806007015490806008015490508a565b6060600060055467ffffffffffffffff811115610fab577f4e487b7100000000000000000000000000000000000000000000000000000000600052604160045260246000fd5b604051908082528060200260200182016040528015610fe457816020015b610fd1611f87565b815260200190600190039081610fc95790505b5090506000805b60055481101561116d576004600082815260200190815260200160002060070160009054906101000a900460ff1661115a57600460008281526020019081526020016000206040518061016001604052908160008201548152602001600182015481526020016002820160009054906101000a900473ffffffffffffffffffffffffffffffffffffffff1673ffffffffffffffffffffffffffffffffffffffff1673ffffffffffffffffffffffffffffffffffffffff168152602001600382015481526020016004820154815260200160058201548152602001600682015481526020016007820160009054906101000a900460ff161515151581526020016008820154815260200160098201548152602001600a82015481525050838381518110611140577f4e487b7100000000000000000000000000000000000000000000000000000000600052603260045260246000fd5b6020026020010181905250818061115690612dee565b9250505b808061116590612dee565b915050610feb565b50819250505090565b3373ffffffffffffffffffffffffffffffffffffffff166002600083815260200190815260200160002060010160009054906101000a900473ffffffffffffffffffffffffffffffffffffffff1673ffffffffffffffffffffffffffffffffffffffff161461121a576040517f08c379a00000000000000000000000000000000000000000000000000000000081526004016112119061293f565b60405180910390fd5b600360006002600084815260200190815260200160002060060160019054906101000a900473ffffffffffffffffffffffffffffffffffffffff1673ffffffffffffffffffffffffffffffffffffffff1673ffffffffffffffffffffffffffffffffffffffff16815260200190815260200160002060010181908060018154018082558091505060019003906000526020600020016000909190919091505560006002600083815260200190815260200160002060030160006101000a81548160ff02191690831515021790555060006002600083815260200190815260200160002060060160006101000a81548160ff02191690831515021790555050565b60008054906101000a900473ffffffffffffffffffffffffffffffffffffffff1681565b336002600085815260200190815260200160002060060160016101000a81548173ffffffffffffffffffffffffffffffffffffffff021916908373ffffffffffffffffffffffffffffffffffffffff16021790555081600260008581526020019081526020016000206007018190555080600260008581526020019081526020016000206008018190555060016002600085815260200190815260200160002060060160006101000a81548160ff021916908315150217905550505050565b600081141561142657816004600085815260200190815260200160002060080181905550611492565b600181141561144f57816004600085815260200190815260200160002060090181905550611491565b6000611490576040517f08c379a00000000000000000000000000000000000000000000000000000000081526004016114879061297f565b60405180910390fd5b5b5b60006004600085815260200190815260200160002060080154121580156114d057506000600460008581526020019081526020016000206009015412155b8015611507575060046000848152602001908152602001600020600901546004600085815260200190815260200160002060080154145b1561189e5760016004600085815260200190815260200160002060070160006101000a81548160ff0219169083151502179055506001600360006004600087815260200190815260200160002060020160009054906101000a900473ffffffffffffffffffffffffffffffffffffffff1673ffffffffffffffffffffffffffffffffffffffff1673ffffffffffffffffffffffffffffffffffffffff16815260200190815260200160002060020160008282546115c49190612c60565b92505081905550600160036000600260006004600089815260200190815260200160002060010154815260200190815260200160002060010160009054906101000a900473ffffffffffffffffffffffffffffffffffffffff1673ffffffffffffffffffffffffffffffffffffffff1673ffffffffffffffffffffffffffffffffffffffff168152602001908152602001600020600201600082825461166a9190612c60565b925050819055506000600360006004600087815260200190815260200160002060020160009054906101000a900473ffffffffffffffffffffffffffffffffffffffff1673ffffffffffffffffffffffffffffffffffffffff1673ffffffffffffffffffffffffffffffffffffffff168152602001908152602001600020600301541415611771576001600360006004600087815260200190815260200160002060020160009054906101000a900473ffffffffffffffffffffffffffffffffffffffff1673ffffffffffffffffffffffffffffffffffffffff1673ffffffffffffffffffffffffffffffffffffffff168152602001908152602001600020600301819055505b600060036000600260006004600089815260200190815260200160002060010154815260200190815260200160002060010160009054906101000a900473ffffffffffffffffffffffffffffffffffffffff1673ffffffffffffffffffffffffffffffffffffffff1673ffffffffffffffffffffffffffffffffffffffff16815260200190815260200160002060030154141561189d57600160036000600260006004600089815260200190815260200160002060010154815260200190815260200160002060010160009054906101000a900473ffffffffffffffffffffffffffffffffffffffff1673ffffffffffffffffffffffffffffffffffffffff1673ffffffffffffffffffffffffffffffffffffffff168152602001908152602001600020600301819055505b5b505050565b600081519050919050565b6002600083815260200190815260200160002060060160009054906101000a900460ff16611e8857600260008381526020019081526020016000206008015460026000848152602001908152602001600020600701548261190f9190612cf4565b1115611e875760005b600360006002600086815260200190815260200160002060060160019054906101000a900473ffffffffffffffffffffffffffffffffffffffff1673ffffffffffffffffffffffffffffffffffffffff1673ffffffffffffffffffffffffffffffffffffffff16815260200190815260200160002060010180549050811015611b315782600360006002600087815260200190815260200160002060060160019054906101000a900473ffffffffffffffffffffffffffffffffffffffff1673ffffffffffffffffffffffffffffffffffffffff1673ffffffffffffffffffffffffffffffffffffffff1681526020019081526020016000206001018281548110611a4c577f4e487b7100000000000000000000000000000000000000000000000000000000600052603260045260246000fd5b90600052602060002001541415611b1e576000600360006002600087815260200190815260200160002060060160019054906101000a900473ffffffffffffffffffffffffffffffffffffffff1673ffffffffffffffffffffffffffffffffffffffff1673ffffffffffffffffffffffffffffffffffffffff1681526020019081526020016000206001018281548110611b0f577f4e487b7100000000000000000000000000000000000000000000000000000000600052603260045260246000fd5b90600052602060002001819055505b8080611b2990612dee565b915050611918565b50600060405180610160016040528060055481526020018481526020016002600086815260200190815260200160002060060160019054906101000a900473ffffffffffffffffffffffffffffffffffffffff1673ffffffffffffffffffffffffffffffffffffffff168152602001600260008681526020019081526020016000206004015481526020016002600086815260200190815260200160002060050154815260200160026000868152602001908152602001600020600701548152602001600260008681526020019081526020016000206008015481526020016000151581526020017fffffffffffffffffffffffffffffffffffffffffffffffffffffffffffffffff81526020017fffffffffffffffffffffffffffffffffffffffffffffffffffffffffffffffff81526020017fffffffffffffffffffffffffffffffffffffffffffffffffffffffffffffffff815250905060026000848152602001908152602001600020600901600554908060018154018082558091505060019003906000526020600020016000909190919091505580600460006005548152602001908152602001600020600082015181600001556020820151816001015560408201518160020160006101000a81548173ffffffffffffffffffffffffffffffffffffffff021916908373ffffffffffffffffffffffffffffffffffffffff160217905550606082015181600301556080820151816004015560a0820151816005015560c0820151816006015560e08201518160070160006101000a81548160ff0219169083151502179055506101008201518160080155610120820151816009015561014082015181600a015590505060056000815480929190611dba90612dee565b919050555060006002600085815260200190815260200160002060060160016101000a81548173ffffffffffffffffffffffffffffffffffffffff021916908373ffffffffffffffffffffffffffffffffffffffff16021790555060006002600085815260200190815260200160002060040181905550600060026000858152602001908152602001600020600501819055506000600260008581526020019081526020016000206007018190555060006002600085815260200190815260200160002060080181905550505b5b5050565b828054611e9890612dbc565b90600052602060002090601f016020900481019282611eba5760008555611f01565b82601f10611ed357805160ff1916838001178555611f01565b82800160010185558215611f01579182015b82811115611f00578251825591602001919060010190611ee5565b5b509050611f0e9190611ff9565b5090565b828054828255906000526020600020908101928215611f4e579160200282015b82811115611f4d578251825591602001919060010190611f32565b5b509050611f5b9190611ff9565b5090565b6040518060800160405280606081526020016060815260200160008152602001600081525090565b6040518061016001604052806000815260200160008152602001600073ffffffffffffffffffffffffffffffffffffffff168152602001600081526020016000815260200160008152602001600081526020016000151581526020016000815260200160008152602001600081525090565b5b80821115612012576000816000905550600101611ffa565b5090565b600061202961202484612b80565b612b4f565b90508281526020810184848401111561204157600080fd5b61204c848285612d7a565b509392505050565b60008135905061206381612ed5565b92915050565b60008135905061207881612eec565b92915050565b600082601f83011261208f57600080fd5b813561209f848260208601612016565b91505092915050565b6000813590506120b781612f03565b92915050565b6000602082840312156120cf57600080fd5b60006120dd84828501612054565b91505092915050565b600080604083850312156120f957600080fd5b600061210785828601612054565b925050602083013567ffffffffffffffff81111561212457600080fd5b6121308582860161207e565b9150509250929050565b60008060006060848603121561214f57600080fd5b600061215d86828701612054565b935050602084013567ffffffffffffffff81111561217a57600080fd5b6121868682870161207e565b9250506040612197868287016120a8565b9150509250925092565b6000602082840312156121b357600080fd5b60006121c1848285016120a8565b91505092915050565b6000806000606084860312156121df57600080fd5b60006121ed868287016120a8565b93505060206121fe86828701612069565b925050604061220f86828701612069565b9150509250925092565b60008060006060848603121561222e57600080fd5b600061223c868287016120a8565b935050602061224d868287016120a8565b925050604061225e868287016120a8565b9150509250925092565b60006122748383612717565b6101608301905092915050565b600061228d8383612862565b60208301905092915050565b6122a281612d28565b82525050565b6122b181612d28565b82525050565b60006122c282612bd0565b6122cc8185612c0b565b93506122d783612bb0565b8060005b838110156123085781516122ef8882612268565b97506122fa83612bf1565b9250506001810190506122db565b5085935050505092915050565b600061232082612bdb565b61232a8185612c1c565b935061233583612bc0565b8060005b8381101561236657815161234d8882612281565b975061235883612bfe565b925050600181019050612339565b5085935050505092915050565b600061237e82612bdb565b6123888185612c2d565b935061239383612bc0565b8060005b838110156123c45781516123ab8882612281565b97506123b683612bfe565b925050600181019050612397565b5085935050505092915050565b6123da81612d3a565b82525050565b6123e981612d3a565b82525050565b6123f881612d46565b82525050565b61240781612d46565b82525050565b600061241882612be6565b6124228185612c3e565b9350612432818560208601612d89565b61243b81612ec4565b840191505092915050565b600061245182612be6565b61245b8185612c4f565b935061246b818560208601612d89565b61247481612ec4565b840191505092915050565b600061248c601483612c4f565b91507f4e616d652063616e6e6f7420626520656d7074790000000000000000000000006000830152602082019050919050565b60006124cc602c83612c4f565b91507f4f6e6c792074686520476f7665726e6d656e742063616e206d696e742028766560008301527f726966792920686f7573657300000000000000000000000000000000000000006020830152604082019050919050565b6000612532602883612c4f565b91507f4f6e6c7920746865206c616e646c6f72642063616e206163746976617465207460008301527f686520686f7573650000000000000000000000000000000000000000000000006020830152604082019050919050565b6000612598602683612c4f565b91507f4f6e6c7920746865206c616e646c6f72642063616e206163636570742074686560008301527f206f6666657200000000000000000000000000000000000000000000000000006020830152604082019050919050565b60006125fe601383612c4f565b91507f5573657220616c726561647920657869737473000000000000000000000000006000830152602082019050919050565b600061263e602a83612c4f565b91507f4f6e6c792074656e616e7420616e64206c616e646c6f72642063616e2073657460008301527f20636f6c61746572616c000000000000000000000000000000000000000000006020830152604082019050919050565b60006126a4601383612c4f565b91507f5573657220646f6573206e6f74206578697374000000000000000000000000006000830152602082019050919050565b60006126e4601483612c4f565b91507f486f75736520616c7265616479206578697374730000000000000000000000006000830152602082019050919050565b6101608201600082015161272e6000850182612862565b5060208201516127416020850182612862565b5060408201516127546040850182612299565b5060608201516127676060850182612862565b50608082015161277a6080850182612862565b5060a082015161278d60a0850182612862565b5060c08201516127a060c0850182612862565b5060e08201516127b360e08501826123d1565b506101008201516127c86101008501826123ef565b506101208201516127dd6101208501826123ef565b506101408201516127f26101408501826123ef565b50505050565b60006080830160008301518482036000860152612815828261240d565b9150506020830151848203602086015261282f8282612315565b915050604083015161284460408601826123ef565b5060608301516128576060860182612862565b508091505092915050565b61286b81612d70565b82525050565b61287a81612d70565b82525050565b600060208201905061289560008301846122a8565b92915050565b600060208201905081810360008301526128b581846122b7565b905092915050565b600060208201905081810360008301526128d78184612373565b905092915050565b600060208201905081810360008301526128f88161247f565b9050919050565b60006020820190508181036000830152612918816124bf565b9050919050565b6000602082019050818103600083015261293881612525565b9050919050565b600060208201905081810360008301526129588161258b565b9050919050565b60006020820190508181036000830152612978816125f1565b9050919050565b6000602082019050818103600083015261299881612631565b9050919050565b600060208201905081810360008301526129b881612697565b9050919050565b600060208201905081810360008301526129d8816126d7565b9050919050565b600060208201905081810360008301526129f981846127f8565b905092915050565b600061014082019050612a17600083018d612871565b612a24602083018c6122a8565b8181036040830152612a36818b612446565b9050612a45606083018a6123e0565b612a526080830189612871565b612a5f60a0830188612871565b612a6c60c08301876123e0565b612a7960e08301866122a8565b612a87610100830185612871565b612a95610120830184612871565b9b9a5050505050505050505050565b600061016082019050612aba600083018e612871565b612ac7602083018d612871565b612ad4604083018c6122a8565b612ae1606083018b612871565b612aee608083018a612871565b612afb60a0830189612871565b612b0860c0830188612871565b612b1560e08301876123e0565b612b236101008301866123fe565b612b316101208301856123fe565b612b3f6101408301846123fe565b9c9b505050505050505050505050565b6000604051905081810181811067ffffffffffffffff82111715612b7657612b75612e95565b5b8060405250919050565b600067ffffffffffffffff821115612b9b57612b9a612e95565b5b601f19601f8301169050602081019050919050565b6000819050602082019050919050565b6000819050602082019050919050565b600081519050919050565b600081519050919050565b600081519050919050565b6000602082019050919050565b6000602082019050919050565b600082825260208201905092915050565b600082825260208201905092915050565b600082825260208201905092915050565b600082825260208201905092915050565b600082825260208201905092915050565b6000612c6b82612d46565b9150612c7683612d46565b9250817f7fffffffffffffffffffffffffffffffffffffffffffffffffffffffffffffff03831360008312151615612cb157612cb0612e37565b5b817f8000000000000000000000000000000000000000000000000000000000000000038312600083121615612ce957612ce8612e37565b5b828201905092915050565b6000612cff82612d70565b9150612d0a83612d70565b925082821015612d1d57612d1c612e37565b5b828203905092915050565b6000612d3382612d50565b9050919050565b60008115159050919050565b6000819050919050565b600073ffffffffffffffffffffffffffffffffffffffff82169050919050565b6000819050919050565b82818337600083830152505050565b60005b83811015612da7578082015181840152602081019050612d8c565b83811115612db6576000848401525b50505050565b60006002820490506001821680612dd457607f821691505b60208210811415612de857612de7612e66565b5b50919050565b6000612df982612d70565b91507fffffffffffffffffffffffffffffffffffffffffffffffffffffffffffffffff821415612e2c57612e2b612e37565b5b600182019050919050565b7f4e487b7100000000000000000000000000000000000000000000000000000000600052601160045260246000fd5b7f4e487b7100000000000000000000000000000000000000000000000000000000600052602260045260246000fd5b7f4e487b7100000000000000000000000000000000000000000000000000000000600052604160045260246000fd5b6000601f19601f8301169050919050565b612ede81612d28565b8114612ee957600080fd5b50565b612ef581612d46565b8114612f0057600080fd5b50565b612f0c81612d70565b8114612f1757600080fd5b5056fea2646970667358221220c558d380b94028748f8eadf4061a7df700f4f79c12fcf440b6ba3fbc5827f61b64736f6c63430008000033",
  "linkReferences": {},
  "deployedLinkReferences": {}
}