{
  "_format": "hh-sol-artifact-1",
  "contractName": "Nesters",
  "sourceName": "contracts/Nesters.sol",
  "abi": [
    {
      "inputs": [],
      "stateMutability": "nonpayable",
      "type": "constructor"
    },
    {
      "inputs": [
        {
          "internalType": "uint256",
          "name": "_id",
          "type": "uint256"
        }
      ],
      "name": "acceptOffer",
      "outputs": [],
      "stateMutability": "nonpayable",
      "type": "function"
    },
    {
      "inputs": [
        {
          "internalType": "uint256",
          "name": "_id",
          "type": "uint256"
        },
        {
          "internalType": "uint256",
          "name": "_price",
          "type": "uint256"
        },
        {
          "internalType": "uint256",
          "name": "_colateral",
          "type": "uint256"
        }
      ],
      "name": "activeHouse",
      "outputs": [],
      "stateMutability": "nonpayable",
      "type": "function"
    },
    {
      "inputs": [],
      "name": "contractOwner",
      "outputs": [
        {
          "internalType": "address",
          "name": "",
          "type": "address"
        }
      ],
      "stateMutability": "view",
      "type": "function"
    },
    {
      "inputs": [
        {
          "internalType": "uint256",
          "name": "_now",
          "type": "uint256"
        }
      ],
      "name": "getActiveHouses",
      "outputs": [
        {
          "internalType": "uint256[]",
          "name": "",
          "type": "uint256[]"
        }
      ],
      "stateMutability": "nonpayable",
      "type": "function"
    },
    {
      "inputs": [
        {
          "internalType": "address",
          "name": "_addr",
          "type": "address"
        }
      ],
      "name": "getUser",
      "outputs": [
        {
          "components": [
            {
              "internalType": "string",
              "name": "name",
              "type": "string"
            },
            {
              "internalType": "uint256[]",
              "name": "properties",
              "type": "uint256[]"
            },
            {
              "internalType": "int256",
              "name": "reputationToken",
              "type": "int256"
            },
            {
              "internalType": "uint256",
              "name": "votingToken",
              "type": "uint256"
            }
          ],
          "internalType": "struct Nesters.User",
          "name": "",
          "type": "tuple"
        }
      ],
      "stateMutability": "view",
      "type": "function"
    },
    {
      "inputs": [
        {
          "internalType": "uint256",
          "name": "",
          "type": "uint256"
        }
      ],
      "name": "histories",
      "outputs": [
        {
          "internalType": "uint256",
          "name": "houseID",
          "type": "uint256"
        },
        {
          "internalType": "address",
          "name": "tennat",
          "type": "address"
        },
        {
          "internalType": "uint256",
          "name": "price",
          "type": "uint256"
        },
        {
          "internalType": "uint256",
          "name": "colateral",
          "type": "uint256"
        },
        {
          "internalType": "uint256",
          "name": "startDate",
          "type": "uint256"
        },
        {
          "internalType": "uint256",
          "name": "rentingPeriod",
          "type": "uint256"
        }
      ],
      "stateMutability": "view",
      "type": "function"
    },
    {
      "inputs": [
        {
          "internalType": "uint256",
          "name": "",
          "type": "uint256"
        }
      ],
      "name": "houses",
      "outputs": [
        {
          "internalType": "uint256",
          "name": "ID",
          "type": "uint256"
        },
        {
          "internalType": "address",
          "name": "owner",
          "type": "address"
        },
        {
          "internalType": "string",
          "name": "physicalAddr",
          "type": "string"
        },
        {
          "internalType": "bool",
          "name": "active",
          "type": "bool"
        },
        {
          "internalType": "uint256",
          "name": "price",
          "type": "uint256"
        },
        {
          "internalType": "uint256",
          "name": "colateral",
          "type": "uint256"
        },
        {
          "internalType": "bool",
          "name": "offer",
          "type": "bool"
        },
        {
          "internalType": "address",
          "name": "tennat",
          "type": "address"
        },
        {
          "internalType": "uint256",
          "name": "startDate",
          "type": "uint256"
        },
        {
          "internalType": "uint256",
          "name": "rentingPeriod",
          "type": "uint256"
        }
      ],
      "stateMutability": "view",
      "type": "function"
    },
    {
      "inputs": [
        {
          "internalType": "uint256",
          "name": "_id",
          "type": "uint256"
        },
        {
          "internalType": "uint256",
          "name": "_startDate",
          "type": "uint256"
        },
        {
          "internalType": "uint256",
          "name": "_rentingPeriod",
          "type": "uint256"
        }
      ],
      "name": "makeOffer",
      "outputs": [],
      "stateMutability": "nonpayable",
      "type": "function"
    },
    {
      "inputs": [
        {
          "internalType": "address",
          "name": "_owner",
          "type": "address"
        },
        {
          "internalType": "string",
          "name": "_physicalAddr",
          "type": "string"
        },
        {
          "internalType": "uint256",
          "name": "_id",
          "type": "uint256"
        }
      ],
      "name": "mintHouse",
      "outputs": [],
      "stateMutability": "nonpayable",
      "type": "function"
    },
    {
      "inputs": [
        {
          "internalType": "address",
          "name": "_addr",
          "type": "address"
        },
        {
          "internalType": "string",
          "name": "_name",
          "type": "string"
        }
      ],
      "name": "registerUser",
      "outputs": [],
      "stateMutability": "nonpayable",
      "type": "function"
    }
  ],
  "bytecode": "0x608060405234801561001057600080fd5b50336000806101000a81548173ffffffffffffffffffffffffffffffffffffffff021916908373ffffffffffffffffffffffffffffffffffffffff160217905550600060058190555061200e806100686000396000f3fe608060405234801561001057600080fd5b506004361061009e5760003560e01c8063980ee24911610066578063980ee24914610170578063aeda852f1461018c578063c815729d146101c5578063ce606ee0146101e1578063e210a72d146101ff5761009e565b80630ea126f9146100a357806349d9b4a5146100bf57806356564b7c146100db57806363f82c3f146101105780636f77926b14610140575b600080fd5b6100bd60048036038101906100b8919061154e565b61021b565b005b6100d960048036038101906100d491906115a2565b61043b565b005b6100f560048036038101906100f09190611609565b610884565b60405161010796959493929190611c90565b60405180910390f35b61012a60048036038101906101259190611609565b6108e0565b6040516101379190611ac9565b60405180910390f35b61015a60048036038101906101559190611525565b610ad2565b6040516101679190611bcb565b60405180910390f35b61018a60048036038101906101859190611632565b610c29565b005b6101a660048036038101906101a19190611609565b610d60565b6040516101bc9a99989796959493929190611bed565b60405180910390f35b6101df60048036038101906101da9190611609565b610e96565b005b6101e9610f9b565b6040516101f69190611aae565b60405180910390f35b61021960048036038101906102149190611632565b610fbf565b005b60006102268261107e565b11610266576040517f08c379a000000000000000000000000000000000000000000000000000000000815260040161025d90611aeb565b60405180910390fd5b600061033b600360008573ffffffffffffffffffffffffffffffffffffffff1673ffffffffffffffffffffffffffffffffffffffff16815260200190815260200160002060000180546102b890611e91565b80601f01602080910402602001604051908101604052809291908181526020018280546102e490611e91565b80156103315780601f1061030657610100808354040283529160200191610331565b820191906000526020600020905b81548152906001019060200180831161031457829003601f168201915b505050505061107e565b1461037b576040517f08c379a000000000000000000000000000000000000000000000000000000000815260040161037290611b6b565b60405180910390fd5b606060006040518060800160405280848152602001838152602001600081526020016000815250905080600360008673ffffffffffffffffffffffffffffffffffffffff1673ffffffffffffffffffffffffffffffffffffffff168152602001908152602001600020600082015181600001908051906020019061040092919061137b565b50602082015181600101908051906020019061041d929190611401565b50604082015181600201556060820151816003015590505050505050565b60008054906101000a900473ffffffffffffffffffffffffffffffffffffffff1673ffffffffffffffffffffffffffffffffffffffff163373ffffffffffffffffffffffffffffffffffffffff16146104c9576040517f08c379a00000000000000000000000000000000000000000000000000000000081526004016104c090611b0b565b60405180910390fd5b6000600260008381526020019081526020016000206000015414610522576040517f08c379a000000000000000000000000000000000000000000000000000000000815260040161051990611bab565b60405180910390fd5b60006105f7600360008673ffffffffffffffffffffffffffffffffffffffff1673ffffffffffffffffffffffffffffffffffffffff168152602001908152602001600020600001805461057490611e91565b80601f01602080910402602001604051908101604052809291908181526020018280546105a090611e91565b80156105ed5780601f106105c2576101008083540402835291602001916105ed565b820191906000526020600020905b8154815290600101906020018083116105d057829003601f168201915b505050505061107e565b11610637576040517f08c379a000000000000000000000000000000000000000000000000000000000815260040161062e90611b8b565b60405180910390fd5b606060006040518061016001604052808481526020018673ffffffffffffffffffffffffffffffffffffffff1681526020018581526020016000151581526020016000815260200160008152602001600015158152602001600073ffffffffffffffffffffffffffffffffffffffff168152602001600081526020016000815260200183815250905080600260008581526020019081526020016000206000820151816000015560208201518160010160006101000a81548173ffffffffffffffffffffffffffffffffffffffff021916908373ffffffffffffffffffffffffffffffffffffffff160217905550604082015181600201908051906020019061074192919061137b565b5060608201518160030160006101000a81548160ff0219169083151502179055506080820151816004015560a0820151816005015560c08201518160060160006101000a81548160ff02191690831515021790555060e08201518160060160016101000a81548173ffffffffffffffffffffffffffffffffffffffff021916908373ffffffffffffffffffffffffffffffffffffffff16021790555061010082015181600701556101208201518160080155610140820151816009019080519060200190610810929190611401565b50905050600360008673ffffffffffffffffffffffffffffffffffffffff1673ffffffffffffffffffffffffffffffffffffffff1681526020019081526020016000206001018390806001815401808255809150506001900390600052602060002001600090919091909150555050505050565b60046020528060005260406000206000915090508060000154908060010160009054906101000a900473ffffffffffffffffffffffffffffffffffffffff16908060020154908060030154908060040154908060050154905086565b6060806000805b600180549050811015610a60576002600060018381548110610932577f4e487b7100000000000000000000000000000000000000000000000000000000600052603260045260246000fd5b9060005260206000200154815260200190815260200160002060030160009054906101000a900460ff16156109fe576001818154811061099b577f4e487b7100000000000000000000000000000000000000000000000000000000600052603260045260246000fd5b90600052602060002001548383815181106109df577f4e487b7100000000000000000000000000000000000000000000000000000000600052603260045260246000fd5b60200260200101818152505081806109f690611ec3565b925050610a4d565b610a4c60018281548110610a3b577f4e487b7100000000000000000000000000000000000000000000000000000000600052603260045260246000fd5b906000526020600020015486611089565b5b8080610a5890611ec3565b9150506108e7565b508160019080519060200190610a77929190611401565b506001805480602002602001604051908101604052809291908181526020018280548015610ac457602002820191906000526020600020905b815481526020019060010190808311610ab0575b505050505092505050919050565b610ada61144e565b600360008373ffffffffffffffffffffffffffffffffffffffff1673ffffffffffffffffffffffffffffffffffffffff168152602001908152602001600020604051806080016040529081600082018054610b3490611e91565b80601f0160208091040260200160405190810160405280929190818152602001828054610b6090611e91565b8015610bad5780601f10610b8257610100808354040283529160200191610bad565b820191906000526020600020905b815481529060010190602001808311610b9057829003601f168201915b5050505050815260200160018201805480602002602001604051908101604052809291908181526020018280548015610c0557602002820191906000526020600020905b815481526020019060010190808311610bf1575b50505050508152602001600282015481526020016003820154815250509050919050565b3373ffffffffffffffffffffffffffffffffffffffff166002600085815260200190815260200160002060010160009054906101000a900473ffffffffffffffffffffffffffffffffffffffff1673ffffffffffffffffffffffffffffffffffffffff1614610ccd576040517f08c379a0000000000000000000000000000000000000000000000000000000008152600401610cc490611b2b565b60405180910390fd5b81600260008581526020019081526020016000206004018190555080600260008581526020019081526020016000206005018190555060016002600085815260200190815260200160002060030160006101000a81548160ff0219169083151502179055506001839080600181540180825580915050600190039060005260206000200160009091909190915055505050565b60026020528060005260406000206000915090508060000154908060010160009054906101000a900473ffffffffffffffffffffffffffffffffffffffff1690806002018054610daf90611e91565b80601f0160208091040260200160405190810160405280929190818152602001828054610ddb90611e91565b8015610e285780601f10610dfd57610100808354040283529160200191610e28565b820191906000526020600020905b815481529060010190602001808311610e0b57829003601f168201915b5050505050908060030160009054906101000a900460ff16908060040154908060050154908060060160009054906101000a900460ff16908060060160019054906101000a900473ffffffffffffffffffffffffffffffffffffffff1690806007015490806008015490508a565b3373ffffffffffffffffffffffffffffffffffffffff166002600083815260200190815260200160002060010160009054906101000a900473ffffffffffffffffffffffffffffffffffffffff1673ffffffffffffffffffffffffffffffffffffffff1614610f3a576040517f08c379a0000000000000000000000000000000000000000000000000000000008152600401610f3190611b4b565b60405180910390fd5b60006002600083815260200190815260200160002060030160006101000a81548160ff02191690831515021790555060006002600083815260200190815260200160002060060160006101000a81548160ff02191690831515021790555050565b60008054906101000a900473ffffffffffffffffffffffffffffffffffffffff1681565b336002600085815260200190815260200160002060060160016101000a81548173ffffffffffffffffffffffffffffffffffffffff021916908373ffffffffffffffffffffffffffffffffffffffff16021790555081600260008581526020019081526020016000206007018190555080600260008581526020019081526020016000206008018190555060016002600085815260200190815260200160002060060160006101000a81548160ff021916908315150217905550505050565b600081519050919050565b6002600083815260200190815260200160002060060160009054906101000a900460ff166113775760026000838152602001908152602001600020600801546002600084815260200190815260200160002060070154826110ea9190611dc9565b11156113765760006040518060c001604052808481526020016002600086815260200190815260200160002060060160019054906101000a900473ffffffffffffffffffffffffffffffffffffffff1673ffffffffffffffffffffffffffffffffffffffff16815260200160026000868152602001908152602001600020600401548152602001600260008681526020019081526020016000206005015481526020016002600086815260200190815260200160002060070154815260200160026000868152602001908152602001600020600801548152509050600260008481526020019081526020016000206009016005549080600181540180825580915050600190039060005260206000200160009091909190915055806004600060055481526020019081526020016000206000820151816000015560208201518160010160006101000a81548173ffffffffffffffffffffffffffffffffffffffff021916908373ffffffffffffffffffffffffffffffffffffffff16021790555060408201518160020155606082015181600301556080820151816004015560a08201518160050155905050600560008154809291906112a990611ec3565b919050555060006002600085815260200190815260200160002060060160016101000a81548173ffffffffffffffffffffffffffffffffffffffff021916908373ffffffffffffffffffffffffffffffffffffffff16021790555060006002600085815260200190815260200160002060040181905550600060026000858152602001908152602001600020600501819055506000600260008581526020019081526020016000206007018190555060006002600085815260200190815260200160002060080181905550505b5b5050565b82805461138790611e91565b90600052602060002090601f0160209004810192826113a957600085556113f0565b82601f106113c257805160ff19168380011785556113f0565b828001600101855582156113f0579182015b828111156113ef5782518255916020019190600101906113d4565b5b5090506113fd9190611476565b5090565b82805482825590600052602060002090810192821561143d579160200282015b8281111561143c578251825591602001919060010190611421565b5b50905061144a9190611476565b5090565b6040518060800160405280606081526020016060815260200160008152602001600081525090565b5b8082111561148f576000816000905550600101611477565b5090565b60006114a66114a184611d22565b611cf1565b9050828152602081018484840111156114be57600080fd5b6114c9848285611e4f565b509392505050565b6000813590506114e081611faa565b92915050565b600082601f8301126114f757600080fd5b8135611507848260208601611493565b91505092915050565b60008135905061151f81611fc1565b92915050565b60006020828403121561153757600080fd5b6000611545848285016114d1565b91505092915050565b6000806040838503121561156157600080fd5b600061156f858286016114d1565b925050602083013567ffffffffffffffff81111561158c57600080fd5b611598858286016114e6565b9150509250929050565b6000806000606084860312156115b757600080fd5b60006115c5868287016114d1565b935050602084013567ffffffffffffffff8111156115e257600080fd5b6115ee868287016114e6565b92505060406115ff86828701611510565b9150509250925092565b60006020828403121561161b57600080fd5b600061162984828501611510565b91505092915050565b60008060006060848603121561164757600080fd5b600061165586828701611510565b935050602061166686828701611510565b925050604061167786828701611510565b9150509250925092565b600061168d8383611a90565b60208301905092915050565b6116a281611dfd565b82525050565b60006116b382611d62565b6116bd8185611d85565b93506116c883611d52565b8060005b838110156116f95781516116e08882611681565b97506116eb83611d78565b9250506001810190506116cc565b5085935050505092915050565b600061171182611d62565b61171b8185611d96565b935061172683611d52565b8060005b8381101561175757815161173e8882611681565b975061174983611d78565b92505060018101905061172a565b5085935050505092915050565b61176d81611e0f565b82525050565b61177c81611e1b565b82525050565b600061178d82611d6d565b6117978185611da7565b93506117a7818560208601611e5e565b6117b081611f99565b840191505092915050565b60006117c682611d6d565b6117d08185611db8565b93506117e0818560208601611e5e565b6117e981611f99565b840191505092915050565b6000611801601483611db8565b91507f4e616d652063616e6e6f7420626520656d7074790000000000000000000000006000830152602082019050919050565b6000611841602c83611db8565b91507f4f6e6c792074686520476f7665726e6d656e742063616e206d696e742028766560008301527f726966792920686f7573657300000000000000000000000000000000000000006020830152604082019050919050565b60006118a7602883611db8565b91507f4f6e6c7920746865206c616e646c6f72642063616e206163746976617465207460008301527f686520686f7573650000000000000000000000000000000000000000000000006020830152604082019050919050565b600061190d602683611db8565b91507f4f6e6c7920746865206c616e646c6f72642063616e206163636570742074686560008301527f206f6666657200000000000000000000000000000000000000000000000000006020830152604082019050919050565b6000611973601383611db8565b91507f5573657220616c726561647920657869737473000000000000000000000000006000830152602082019050919050565b60006119b3601383611db8565b91507f5573657220646f6573206e6f74206578697374000000000000000000000000006000830152602082019050919050565b60006119f3601483611db8565b91507f486f75736520616c7265616479206578697374730000000000000000000000006000830152602082019050919050565b60006080830160008301518482036000860152611a438282611782565b91505060208301518482036020860152611a5d82826116a8565b9150506040830151611a726040860182611773565b506060830151611a856060860182611a90565b508091505092915050565b611a9981611e45565b82525050565b611aa881611e45565b82525050565b6000602082019050611ac36000830184611699565b92915050565b60006020820190508181036000830152611ae38184611706565b905092915050565b60006020820190508181036000830152611b04816117f4565b9050919050565b60006020820190508181036000830152611b2481611834565b9050919050565b60006020820190508181036000830152611b448161189a565b9050919050565b60006020820190508181036000830152611b6481611900565b9050919050565b60006020820190508181036000830152611b8481611966565b9050919050565b60006020820190508181036000830152611ba4816119a6565b9050919050565b60006020820190508181036000830152611bc4816119e6565b9050919050565b60006020820190508181036000830152611be58184611a26565b905092915050565b600061014082019050611c03600083018d611a9f565b611c10602083018c611699565b8181036040830152611c22818b6117bb565b9050611c31606083018a611764565b611c3e6080830189611a9f565b611c4b60a0830188611a9f565b611c5860c0830187611764565b611c6560e0830186611699565b611c73610100830185611a9f565b611c81610120830184611a9f565b9b9a5050505050505050505050565b600060c082019050611ca56000830189611a9f565b611cb26020830188611699565b611cbf6040830187611a9f565b611ccc6060830186611a9f565b611cd96080830185611a9f565b611ce660a0830184611a9f565b979650505050505050565b6000604051905081810181811067ffffffffffffffff82111715611d1857611d17611f6a565b5b8060405250919050565b600067ffffffffffffffff821115611d3d57611d3c611f6a565b5b601f19601f8301169050602081019050919050565b6000819050602082019050919050565b600081519050919050565b600081519050919050565b6000602082019050919050565b600082825260208201905092915050565b600082825260208201905092915050565b600082825260208201905092915050565b600082825260208201905092915050565b6000611dd482611e45565b9150611ddf83611e45565b925082821015611df257611df1611f0c565b5b828203905092915050565b6000611e0882611e25565b9050919050565b60008115159050919050565b6000819050919050565b600073ffffffffffffffffffffffffffffffffffffffff82169050919050565b6000819050919050565b82818337600083830152505050565b60005b83811015611e7c578082015181840152602081019050611e61565b83811115611e8b576000848401525b50505050565b60006002820490506001821680611ea957607f821691505b60208210811415611ebd57611ebc611f3b565b5b50919050565b6000611ece82611e45565b91507fffffffffffffffffffffffffffffffffffffffffffffffffffffffffffffffff821415611f0157611f00611f0c565b5b600182019050919050565b7f4e487b7100000000000000000000000000000000000000000000000000000000600052601160045260246000fd5b7f4e487b7100000000000000000000000000000000000000000000000000000000600052602260045260246000fd5b7f4e487b7100000000000000000000000000000000000000000000000000000000600052604160045260246000fd5b6000601f19601f8301169050919050565b611fb381611dfd565b8114611fbe57600080fd5b50565b611fca81611e45565b8114611fd557600080fd5b5056fea2646970667358221220495a0e1b05d136ed0016cd71fcfa05a183917b45d7b49d0652bc4ce1696c574364736f6c63430008000033",
  "linkReferences": {},
  "deployedLinkReferences": {}
}