{
  "_format": "hh-sol-artifact-1",
  "contractName": "Nesters",
  "sourceName": "contracts/Nesters.sol",
  "abi": [
    {
      "inputs": [],
      "stateMutability": "nonpayable",
      "type": "constructor"
    },
    {
      "inputs": [
        {
          "internalType": "uint256",
          "name": "_id",
          "type": "uint256"
        }
      ],
      "name": "acceptOffer",
      "outputs": [],
      "stateMutability": "nonpayable",
      "type": "function"
    },
    {
      "inputs": [
        {
          "internalType": "uint256",
          "name": "_id",
          "type": "uint256"
        },
        {
          "internalType": "uint256",
          "name": "_price",
          "type": "uint256"
        },
        {
          "internalType": "uint256",
          "name": "_colateral",
          "type": "uint256"
        }
      ],
      "name": "activeHouse",
      "outputs": [],
      "stateMutability": "nonpayable",
      "type": "function"
    },
    {
      "inputs": [],
      "name": "contractOwner",
      "outputs": [
        {
          "internalType": "address",
          "name": "",
          "type": "address"
        }
      ],
      "stateMutability": "view",
      "type": "function"
    },
    {
      "inputs": [
        {
          "internalType": "uint256",
          "name": "_tranID",
          "type": "uint256"
        }
      ],
      "name": "countVote",
      "outputs": [],
      "stateMutability": "nonpayable",
      "type": "function"
    },
    {
      "inputs": [
        {
          "internalType": "uint256",
          "name": "_now",
          "type": "uint256"
        }
      ],
      "name": "getActiveHouses",
      "outputs": [
        {
          "internalType": "uint256[]",
          "name": "",
          "type": "uint256[]"
        }
      ],
      "stateMutability": "nonpayable",
      "type": "function"
    },
    {
      "inputs": [],
      "name": "getToVoted",
      "outputs": [
        {
          "components": [
            {
              "internalType": "uint256",
              "name": "ID",
              "type": "uint256"
            },
            {
              "internalType": "uint256",
              "name": "houseID",
              "type": "uint256"
            },
            {
              "internalType": "address",
              "name": "tenant",
              "type": "address"
            },
            {
              "internalType": "uint256",
              "name": "price",
              "type": "uint256"
            },
            {
              "internalType": "uint256",
              "name": "colateral",
              "type": "uint256"
            },
            {
              "internalType": "uint256",
              "name": "startDate",
              "type": "uint256"
            },
            {
              "internalType": "uint256",
              "name": "rentingPeriod",
              "type": "uint256"
            },
            {
              "internalType": "bool",
              "name": "voted",
              "type": "bool"
            },
            {
              "internalType": "int256",
              "name": "tenantColateral",
              "type": "int256"
            },
            {
              "internalType": "int256",
              "name": "landlordColateral",
              "type": "int256"
            },
            {
              "internalType": "int256",
              "name": "voteID",
              "type": "int256"
            }
          ],
          "internalType": "struct Nesters.Transaction[]",
          "name": "",
          "type": "tuple[]"
        }
      ],
      "stateMutability": "view",
      "type": "function"
    },
    {
      "inputs": [
        {
          "internalType": "address",
          "name": "_addr",
          "type": "address"
        }
      ],
      "name": "getUser",
      "outputs": [
        {
          "components": [
            {
              "internalType": "string",
              "name": "name",
              "type": "string"
            },
            {
              "internalType": "uint256[]",
              "name": "properties",
              "type": "uint256[]"
            },
            {
              "internalType": "int256",
              "name": "reputationToken",
              "type": "int256"
            },
            {
              "internalType": "uint256",
              "name": "votingToken",
              "type": "uint256"
            }
          ],
          "internalType": "struct Nesters.User",
          "name": "",
          "type": "tuple"
        }
      ],
      "stateMutability": "view",
      "type": "function"
    },
    {
      "inputs": [
        {
          "internalType": "uint256",
          "name": "",
          "type": "uint256"
        }
      ],
      "name": "histories",
      "outputs": [
        {
          "internalType": "uint256",
          "name": "ID",
          "type": "uint256"
        },
        {
          "internalType": "uint256",
          "name": "houseID",
          "type": "uint256"
        },
        {
          "internalType": "address",
          "name": "tenant",
          "type": "address"
        },
        {
          "internalType": "uint256",
          "name": "price",
          "type": "uint256"
        },
        {
          "internalType": "uint256",
          "name": "colateral",
          "type": "uint256"
        },
        {
          "internalType": "uint256",
          "name": "startDate",
          "type": "uint256"
        },
        {
          "internalType": "uint256",
          "name": "rentingPeriod",
          "type": "uint256"
        },
        {
          "internalType": "bool",
          "name": "voted",
          "type": "bool"
        },
        {
          "internalType": "int256",
          "name": "tenantColateral",
          "type": "int256"
        },
        {
          "internalType": "int256",
          "name": "landlordColateral",
          "type": "int256"
        },
        {
          "internalType": "int256",
          "name": "voteID",
          "type": "int256"
        }
      ],
      "stateMutability": "view",
      "type": "function"
    },
    {
      "inputs": [
        {
          "internalType": "uint256",
          "name": "",
          "type": "uint256"
        }
      ],
      "name": "houses",
      "outputs": [
        {
          "internalType": "uint256",
          "name": "ID",
          "type": "uint256"
        },
        {
          "internalType": "address",
          "name": "owner",
          "type": "address"
        },
        {
          "internalType": "string",
          "name": "physicalAddr",
          "type": "string"
        },
        {
          "internalType": "bool",
          "name": "active",
          "type": "bool"
        },
        {
          "internalType": "uint256",
          "name": "price",
          "type": "uint256"
        },
        {
          "internalType": "uint256",
          "name": "colateral",
          "type": "uint256"
        },
        {
          "internalType": "bool",
          "name": "offer",
          "type": "bool"
        },
        {
          "internalType": "address",
          "name": "tenant",
          "type": "address"
        },
        {
          "internalType": "uint256",
          "name": "startDate",
          "type": "uint256"
        },
        {
          "internalType": "uint256",
          "name": "rentingPeriod",
          "type": "uint256"
        }
      ],
      "stateMutability": "view",
      "type": "function"
    },
    {
      "inputs": [
        {
          "internalType": "uint256",
          "name": "_id",
          "type": "uint256"
        },
        {
          "internalType": "uint256",
          "name": "_startDate",
          "type": "uint256"
        },
        {
          "internalType": "uint256",
          "name": "_rentingPeriod",
          "type": "uint256"
        }
      ],
      "name": "makeOffer",
      "outputs": [],
      "stateMutability": "nonpayable",
      "type": "function"
    },
    {
      "inputs": [
        {
          "internalType": "address",
          "name": "_owner",
          "type": "address"
        },
        {
          "internalType": "string",
          "name": "_physicalAddr",
          "type": "string"
        },
        {
          "internalType": "uint256",
          "name": "_id",
          "type": "uint256"
        }
      ],
      "name": "mintHouse",
      "outputs": [],
      "stateMutability": "nonpayable",
      "type": "function"
    },
    {
      "inputs": [
        {
          "internalType": "address",
          "name": "_addr",
          "type": "address"
        },
        {
          "internalType": "string",
          "name": "_name",
          "type": "string"
        }
      ],
      "name": "registerUser",
      "outputs": [],
      "stateMutability": "nonpayable",
      "type": "function"
    },
    {
      "inputs": [
        {
          "internalType": "uint256",
          "name": "_tranID",
          "type": "uint256"
        },
        {
          "internalType": "int256",
          "name": "_price",
          "type": "int256"
        },
        {
          "internalType": "int256",
          "name": "_role",
          "type": "int256"
        }
      ],
      "name": "setColateral",
      "outputs": [],
      "stateMutability": "nonpayable",
      "type": "function"
    },
    {
      "inputs": [
        {
          "internalType": "address",
          "name": "_addr",
          "type": "address"
        },
        {
          "internalType": "int256",
          "name": "_reputation",
          "type": "int256"
        },
        {
          "internalType": "uint256",
          "name": "_voting",
          "type": "uint256"
        }
      ],
      "name": "setUser",
      "outputs": [],
      "stateMutability": "nonpayable",
      "type": "function"
    },
    {
      "inputs": [
        {
          "internalType": "uint256",
          "name": "_voteID",
          "type": "uint256"
        },
        {
          "internalType": "uint256",
          "name": "_price",
          "type": "uint256"
        }
      ],
      "name": "vote",
      "outputs": [],
      "stateMutability": "nonpayable",
      "type": "function"
    },
    {
      "inputs": [
        {
          "internalType": "uint256",
          "name": "",
          "type": "uint256"
        }
      ],
      "name": "votes",
      "outputs": [
        {
          "internalType": "uint256",
          "name": "ID",
          "type": "uint256"
        },
        {
          "internalType": "int256",
          "name": "votedColateral",
          "type": "int256"
        }
      ],
      "stateMutability": "view",
      "type": "function"
    }
  ],
  "bytecode": "0x6080604052600f67ffffffffffffffff81111562000046577f4e487b7100000000000000000000000000000000000000000000000000000000600052604160045260246000fd5b604051908082528060200260200182016040528015620000755781602001602082028036833780820191505090505b50600190805190602001906200008d929190620000fa565b503480156200009b57600080fd5b50336000806101000a81548173ffffffffffffffffffffffffffffffffffffffff021916908373ffffffffffffffffffffffffffffffffffffffff160217905550600060088190555060006009819055506000600a819055506200016b565b82805482825590600052602060002090810192821562000139579160200282015b82811115620001385782518255916020019190600101906200011b565b5b5090506200014891906200014c565b5090565b5b80821115620001675760008160009055506001016200014d565b5090565b613d61806200017b6000396000f3fe608060405234801561001057600080fd5b50600436106101005760003560e01c8063aeda852f11610097578063ce606ee011610066578063ce606ee0146102cf578063cf0b1eb1146102ed578063e210a72d14610309578063e6e72b3e1461032557610100565b8063aeda852f14610240578063b384abef14610279578063b86e81a514610295578063c815729d146102b357610100565b80635df81330116100d35780635df813301461019357806363f82c3f146101c45780636f77926b146101f4578063980ee2491461022457610100565b80630ea126f91461010557806324ae7c761461012157806349d9b4a51461013d57806356564b7c14610159575b600080fd5b61011f600480360381019061011a9190612d5f565b610341565b005b61013b60048036038101906101369190612e1a565b6105cd565b005b61015760048036038101906101529190612db3565b610d6d565b005b610173600480360381019061016e9190612e1a565b611222565b60405161018a9b9a99989796959493929190613782565b60405180910390f35b6101ad60048036038101906101a89190612e1a565b6112a9565b6040516101bb929190613759565b60405180910390f35b6101de60048036038101906101d99190612e1a565b6112cd565b6040516101eb9190613572565b60405180910390f35b61020e60048036038101906102099190612ce7565b6114a2565b60405161021b9190613694565b60405180910390f35b61023e60048036038101906102399190612ece565b6115f9565b005b61025a60048036038101906102559190612e1a565b611730565b6040516102709a999897969594939291906136b6565b60405180910390f35b610293600480360381019061028e9190612e92565b611866565b005b61029d6119a7565b6040516102aa9190613550565b60405180910390f35b6102cd60048036038101906102c89190612e1a565b611bb8565b005b6102d7611d5c565b6040516102e49190613535565b60405180910390f35b61030760048036038101906103029190612d10565b611d80565b005b610323600480360381019061031e9190612ece565b611e13565b005b61033f600480360381019061033a9190612e43565b611ed2565b005b600061034c826124ab565b1161038c576040517f08c379a000000000000000000000000000000000000000000000000000000000815260040161038390613594565b60405180910390fd5b6000610461600360008573ffffffffffffffffffffffffffffffffffffffff1673ffffffffffffffffffffffffffffffffffffffff16815260200190815260200160002060000180546103de90613b84565b80601f016020809104026020016040519081016040528092919081815260200182805461040a90613b84565b80156104575780601f1061042c57610100808354040283529160200191610457565b820191906000526020600020905b81548152906001019060200180831161043a57829003601f168201915b50505050506124ab565b146104a1576040517f08c379a000000000000000000000000000000000000000000000000000000000815260040161049890613614565b60405180910390fd5b60006040518060800160405280838152602001600f67ffffffffffffffff8111156104f5577f4e487b7100000000000000000000000000000000000000000000000000000000600052604160045260246000fd5b6040519080825280602002602001820160405280156105235781602001602082028036833780820191505090505b508152602001600081526020016000815250905080600360008573ffffffffffffffffffffffffffffffffffffffff1673ffffffffffffffffffffffffffffffffffffffff1681526020019081526020016000206000820151816000019080519060200190610593929190612ab6565b5060208201518160010190805190602001906105b0929190612b3c565b506040820151816002015560608201518160030155905050505050565b60006005600060046000858152602001908152602001600020600a01548152602001908152602001600020604051806060016040529081600082015481526020016001820180548060200260200160405190810160405280929190818152602001828054801561065c57602002820191906000526020600020905b815481526020019060010190808311610648575b50505050508152602001600282015481525050905060005b8160200151518110156107075760006006600060076000866020015186815181106106c8577f4e487b7100000000000000000000000000000000000000000000000000000000600052603260045260246000fd5b602002602001015181526020019081526020016000206002015481526020019081526020016000208190555080806106ff90613bb6565b915050610674565b5060005b8160200151518110156108fa576007600083602001518381518110610759577f4e487b7100000000000000000000000000000000000000000000000000000000600052603260045260246000fd5b60200260200101518152602001908152602001600020600101546006600060076000866020015186815181106107b8577f4e487b7100000000000000000000000000000000000000000000000000000000600052603260045260246000fd5b6020026020010151815260200190815260200160002060020154815260200190815260200160002060008282546107ef919061393e565b925050819055508160400151600660006007600086602001518681518110610840577f4e487b7100000000000000000000000000000000000000000000000000000000600052603260045260246000fd5b602002602001015181526020019081526020016000206002015481526020019081526020016000205413156108e7576006600060076000856020015185815181106108b4577f4e487b7100000000000000000000000000000000000000000000000000000000600052603260045260246000fd5b60200260200101518152602001908152602001600020600201548152602001908152602001600020548260400181815250505b80806108f290613bb6565b91505061070b565b5060005b816020015151811015610a595781604001516007600084602001518481518110610951577f4e487b7100000000000000000000000000000000000000000000000000000000600052603260045260246000fd5b60200260200101518152602001908152602001600020600201541415610a465760016003600060076000866020015186815181106109b8577f4e487b7100000000000000000000000000000000000000000000000000000000600052603260045260246000fd5b6020026020010151815260200190815260200160002060000160009054906101000a900473ffffffffffffffffffffffffffffffffffffffff1673ffffffffffffffffffffffffffffffffffffffff1673ffffffffffffffffffffffffffffffffffffffff1681526020019081526020016000206003016000828254610a3e91906139d2565b925050819055505b8080610a5190613bb6565b9150506108fe565b506000610a8a60046000858152602001908152602001600020600801548360400151610a859190613a28565b6124b6565b90506000610abc60046000868152602001908152602001600020600901548460400151610ab79190613a28565b6124b6565b905080821115610c01576002600360006004600088815260200190815260200160002060020160009054906101000a900473ffffffffffffffffffffffffffffffffffffffff1673ffffffffffffffffffffffffffffffffffffffff1673ffffffffffffffffffffffffffffffffffffffff1681526020019081526020016000206002016000828254610b4f9190613a28565b9250508190555060016003600060026000600460008a815260200190815260200160002060010154815260200190815260200160002060010160009054906101000a900473ffffffffffffffffffffffffffffffffffffffff1673ffffffffffffffffffffffffffffffffffffffff1673ffffffffffffffffffffffffffffffffffffffff1681526020019081526020016000206002016000828254610bf5919061393e565b92505081905550610d38565b60026003600060026000600460008a815260200190815260200160002060010154815260200190815260200160002060010160009054906101000a900473ffffffffffffffffffffffffffffffffffffffff1673ffffffffffffffffffffffffffffffffffffffff1673ffffffffffffffffffffffffffffffffffffffff1681526020019081526020016000206002016000828254610ca09190613a28565b925050819055506001600360006004600088815260200190815260200160002060020160009054906101000a900473ffffffffffffffffffffffffffffffffffffffff1673ffffffffffffffffffffffffffffffffffffffff1673ffffffffffffffffffffffffffffffffffffffff1681526020019081526020016000206002016000828254610d30919061393e565b925050819055505b60016004600086815260200190815260200160002060070160006101000a81548160ff02191690831515021790555050505050565b60008054906101000a900473ffffffffffffffffffffffffffffffffffffffff1673ffffffffffffffffffffffffffffffffffffffff163373ffffffffffffffffffffffffffffffffffffffff1614610dfb576040517f08c379a0000000000000000000000000000000000000000000000000000000008152600401610df2906135b4565b60405180910390fd5b6000600260008381526020019081526020016000206000015414610e54576040517f08c379a0000000000000000000000000000000000000000000000000000000008152600401610e4b90613674565b60405180910390fd5b6000610f29600360008673ffffffffffffffffffffffffffffffffffffffff1673ffffffffffffffffffffffffffffffffffffffff1681526020019081526020016000206000018054610ea690613b84565b80601f0160208091040260200160405190810160405280929190818152602001828054610ed290613b84565b8015610f1f5780601f10610ef457610100808354040283529160200191610f1f565b820191906000526020600020905b815481529060010190602001808311610f0257829003601f168201915b50505050506124ab565b11610f69576040517f08c379a0000000000000000000000000000000000000000000000000000000008152600401610f6090613654565b60405180910390fd5b60006040518061016001604052808381526020018573ffffffffffffffffffffffffffffffffffffffff1681526020018481526020016000151581526020016000815260200160008152602001600015158152602001600073ffffffffffffffffffffffffffffffffffffffff1681526020016000815260200160008152602001600f67ffffffffffffffff81111561102b577f4e487b7100000000000000000000000000000000000000000000000000000000600052604160045260246000fd5b6040519080825280602002602001820160405280156110595781602001602082028036833780820191505090505b50815250905080600260008481526020019081526020016000206000820151816000015560208201518160010160006101000a81548173ffffffffffffffffffffffffffffffffffffffff021916908373ffffffffffffffffffffffffffffffffffffffff16021790555060408201518160020190805190602001906110e0929190612ab6565b5060608201518160030160006101000a81548160ff0219169083151502179055506080820151816004015560a0820151816005015560c08201518160060160006101000a81548160ff02191690831515021790555060e08201518160060160016101000a81548173ffffffffffffffffffffffffffffffffffffffff021916908373ffffffffffffffffffffffffffffffffffffffff160217905550610100820151816007015561012082015181600801556101408201518160090190805190602001906111af929190612b3c565b50905050600360008573ffffffffffffffffffffffffffffffffffffffff1673ffffffffffffffffffffffffffffffffffffffff16815260200190815260200160002060010182908060018154018082558091505060019003906000526020600020016000909190919091505550505050565b60046020528060005260406000206000915090508060000154908060010154908060020160009054906101000a900473ffffffffffffffffffffffffffffffffffffffff16908060030154908060040154908060050154908060060154908060070160009054906101000a900460ff169080600801549080600901549080600a015490508b565b60056020528060005260406000206000915090508060000154908060020154905082565b606060005b6001805490508110156114495760006001828154811061131b577f4e487b7100000000000000000000000000000000000000000000000000000000600052603260045260246000fd5b90600052602060002001541180156113985750600260006001838154811061136c577f4e487b7100000000000000000000000000000000000000000000000000000000600052603260045260246000fd5b9060005260206000200154815260200190815260200160002060030160009054906101000a900460ff16155b15611436576113eb600182815481106113da577f4e487b7100000000000000000000000000000000000000000000000000000000600052603260045260246000fd5b9060005260206000200154846124d8565b600060018281548110611427577f4e487b7100000000000000000000000000000000000000000000000000000000600052603260045260246000fd5b90600052602060002001819055505b808061144190613bb6565b9150506112d2565b50600180548060200260200160405190810160405280929190818152602001828054801561149657602002820191906000526020600020905b815481526020019060010190808311611482575b50505050509050919050565b6114aa612b89565b600360008373ffffffffffffffffffffffffffffffffffffffff1673ffffffffffffffffffffffffffffffffffffffff16815260200190815260200160002060405180608001604052908160008201805461150490613b84565b80601f016020809104026020016040519081016040528092919081815260200182805461153090613b84565b801561157d5780601f106115525761010080835404028352916020019161157d565b820191906000526020600020905b81548152906001019060200180831161156057829003601f168201915b50505050508152602001600182018054806020026020016040519081016040528092919081815260200182805480156115d557602002820191906000526020600020905b8154815260200190600101908083116115c1575b50505050508152602001600282015481526020016003820154815250509050919050565b3373ffffffffffffffffffffffffffffffffffffffff166002600085815260200190815260200160002060010160009054906101000a900473ffffffffffffffffffffffffffffffffffffffff1673ffffffffffffffffffffffffffffffffffffffff161461169d576040517f08c379a0000000000000000000000000000000000000000000000000000000008152600401611694906135d4565b60405180910390fd5b81600260008581526020019081526020016000206004018190555080600260008581526020019081526020016000206005018190555060016002600085815260200190815260200160002060030160006101000a81548160ff0219169083151502179055506001839080600181540180825580915050600190039060005260206000200160009091909190915055505050565b60026020528060005260406000206000915090508060000154908060010160009054906101000a900473ffffffffffffffffffffffffffffffffffffffff169080600201805461177f90613b84565b80601f01602080910402602001604051908101604052809291908181526020018280546117ab90613b84565b80156117f85780601f106117cd576101008083540402835291602001916117f8565b820191906000526020600020905b8154815290600101906020018083116117db57829003601f168201915b5050505050908060030160009054906101000a900460ff16908060040154908060050154908060060160009054906101000a900460ff16908060060160019054906101000a900473ffffffffffffffffffffffffffffffffffffffff1690806007015490806008015490508a565b60405180606001604052803373ffffffffffffffffffffffffffffffffffffffff168152602001600360003373ffffffffffffffffffffffffffffffffffffffff1673ffffffffffffffffffffffffffffffffffffffff1681526020019081526020016000206003015481526020018281525060076000600a54815260200190815260200160002060008201518160000160006101000a81548173ffffffffffffffffffffffffffffffffffffffff021916908373ffffffffffffffffffffffffffffffffffffffff160217905550602082015181600101556040820151816002015590505060056000838152602001908152602001600020600101600a549080600181540180825580915050600190039060005260206000200160009091909190915055600a600081548092919061199e90613bb6565b91905055505050565b6060600060085467ffffffffffffffff8111156119ed577f4e487b7100000000000000000000000000000000000000000000000000000000600052604160045260246000fd5b604051908082528060200260200182016040528015611a2657816020015b611a13612bb1565b815260200190600190039081611a0b5790505b5090506000805b600854811015611baf576004600082815260200190815260200160002060070160009054906101000a900460ff16611b9c57600460008281526020019081526020016000206040518061016001604052908160008201548152602001600182015481526020016002820160009054906101000a900473ffffffffffffffffffffffffffffffffffffffff1673ffffffffffffffffffffffffffffffffffffffff1673ffffffffffffffffffffffffffffffffffffffff168152602001600382015481526020016004820154815260200160058201548152602001600682015481526020016007820160009054906101000a900460ff161515151581526020016008820154815260200160098201548152602001600a82015481525050838381518110611b82577f4e487b7100000000000000000000000000000000000000000000000000000000600052603260045260246000fd5b60200260200101819052508180611b9890613bb6565b9250505b8080611ba790613bb6565b915050611a2d565b50819250505090565b3373ffffffffffffffffffffffffffffffffffffffff166002600083815260200190815260200160002060010160009054906101000a900473ffffffffffffffffffffffffffffffffffffffff1673ffffffffffffffffffffffffffffffffffffffff1614611c5c576040517f08c379a0000000000000000000000000000000000000000000000000000000008152600401611c53906135f4565b60405180910390fd5b600360006002600084815260200190815260200160002060060160019054906101000a900473ffffffffffffffffffffffffffffffffffffffff1673ffffffffffffffffffffffffffffffffffffffff1673ffffffffffffffffffffffffffffffffffffffff16815260200190815260200160002060010181908060018154018082558091505060019003906000526020600020016000909190919091505560006002600083815260200190815260200160002060030160006101000a81548160ff02191690831515021790555060006002600083815260200190815260200160002060060160006101000a81548160ff02191690831515021790555050565b60008054906101000a900473ffffffffffffffffffffffffffffffffffffffff1681565b81600360008573ffffffffffffffffffffffffffffffffffffffff1673ffffffffffffffffffffffffffffffffffffffff1681526020019081526020016000206002018190555080600360008573ffffffffffffffffffffffffffffffffffffffff1673ffffffffffffffffffffffffffffffffffffffff16815260200190815260200160002060030181905550505050565b336002600085815260200190815260200160002060060160016101000a81548173ffffffffffffffffffffffffffffffffffffffff021916908373ffffffffffffffffffffffffffffffffffffffff16021790555081600260008581526020019081526020016000206007018190555080600260008581526020019081526020016000206008018190555060016002600085815260200190815260200160002060060160006101000a81548160ff021916908315150217905550505050565b6000811415611efb57816004600085815260200190815260200160002060080181905550611f67565b6001811415611f2457816004600085815260200190815260200160002060090181905550611f66565b6000611f65576040517f08c379a0000000000000000000000000000000000000000000000000000000008152600401611f5c90613634565b60405180910390fd5b5b5b6000600460008581526020019081526020016000206008015412158015611fa557506000600460008581526020019081526020016000206009015412155b156124a6576004600084815260200190815260200160002060090154600460008581526020019081526020016000206008015414156123745760016004600085815260200190815260200160002060070160006101000a81548160ff021916908315150217905550600a600360006004600087815260200190815260200160002060020160009054906101000a900473ffffffffffffffffffffffffffffffffffffffff1673ffffffffffffffffffffffffffffffffffffffff1673ffffffffffffffffffffffffffffffffffffffff1681526020019081526020016000206002016000828254612096919061393e565b92505081905550600a60036000600260006004600089815260200190815260200160002060010154815260200190815260200160002060010160009054906101000a900473ffffffffffffffffffffffffffffffffffffffff1673ffffffffffffffffffffffffffffffffffffffff1673ffffffffffffffffffffffffffffffffffffffff168152602001908152602001600020600201600082825461213c919061393e565b925050819055506000600360006004600087815260200190815260200160002060020160009054906101000a900473ffffffffffffffffffffffffffffffffffffffff1673ffffffffffffffffffffffffffffffffffffffff1673ffffffffffffffffffffffffffffffffffffffff168152602001908152602001600020600301541415612243576001600360006004600087815260200190815260200160002060020160009054906101000a900473ffffffffffffffffffffffffffffffffffffffff1673ffffffffffffffffffffffffffffffffffffffff1673ffffffffffffffffffffffffffffffffffffffff168152602001908152602001600020600301819055505b600060036000600260006004600089815260200190815260200160002060010154815260200190815260200160002060010160009054906101000a900473ffffffffffffffffffffffffffffffffffffffff1673ffffffffffffffffffffffffffffffffffffffff1673ffffffffffffffffffffffffffffffffffffffff16815260200190815260200160002060030154141561236f57600160036000600260006004600089815260200190815260200160002060010154815260200190815260200160002060010160009054906101000a900473ffffffffffffffffffffffffffffffffffffffff1673ffffffffffffffffffffffffffffffffffffffff1673ffffffffffffffffffffffffffffffffffffffff168152602001908152602001600020600301819055505b6124a5565b600060405180606001604052806009548152602001600f67ffffffffffffffff8111156123ca577f4e487b7100000000000000000000000000000000000000000000000000000000600052604160045260246000fd5b6040519080825280602002602001820160405280156123f85781602001602082028036833780820191505090505b5081526020017fffffffffffffffffffffffffffffffffffffffffffffffffffffffffffffffff815250905060095460046000868152602001908152602001600020600a01819055508060056000600954815260200190815260200160002060008201518160000155602082015181600101908051906020019061247d929190612b3c565b50604082015181600201559050506009600081548092919061249e90613bb6565b9190505550505b5b505050565b600081519050919050565b6000808212156124cf57816124ca90613bff565b6124d1565b815b9050919050565b6002600083815260200190815260200160002060060160009054906101000a900460ff16612ab25760026000838152602001908152602001600020600801546002600084815260200190815260200160002060070154826125399190613abc565b1115612ab15760005b600360006002600086815260200190815260200160002060060160019054906101000a900473ffffffffffffffffffffffffffffffffffffffff1673ffffffffffffffffffffffffffffffffffffffff1673ffffffffffffffffffffffffffffffffffffffff1681526020019081526020016000206001018054905081101561275b5782600360006002600087815260200190815260200160002060060160019054906101000a900473ffffffffffffffffffffffffffffffffffffffff1673ffffffffffffffffffffffffffffffffffffffff1673ffffffffffffffffffffffffffffffffffffffff1681526020019081526020016000206001018281548110612676577f4e487b7100000000000000000000000000000000000000000000000000000000600052603260045260246000fd5b90600052602060002001541415612748576000600360006002600087815260200190815260200160002060060160019054906101000a900473ffffffffffffffffffffffffffffffffffffffff1673ffffffffffffffffffffffffffffffffffffffff1673ffffffffffffffffffffffffffffffffffffffff1681526020019081526020016000206001018281548110612739577f4e487b7100000000000000000000000000000000000000000000000000000000600052603260045260246000fd5b90600052602060002001819055505b808061275390613bb6565b915050612542565b50600060405180610160016040528060085481526020018481526020016002600086815260200190815260200160002060060160019054906101000a900473ffffffffffffffffffffffffffffffffffffffff1673ffffffffffffffffffffffffffffffffffffffff168152602001600260008681526020019081526020016000206004015481526020016002600086815260200190815260200160002060050154815260200160026000868152602001908152602001600020600701548152602001600260008681526020019081526020016000206008015481526020016000151581526020017fffffffffffffffffffffffffffffffffffffffffffffffffffffffffffffffff81526020017fffffffffffffffffffffffffffffffffffffffffffffffffffffffffffffffff81526020017fffffffffffffffffffffffffffffffffffffffffffffffffffffffffffffffff815250905060026000848152602001908152602001600020600901600854908060018154018082558091505060019003906000526020600020016000909190919091505580600460006008548152602001908152602001600020600082015181600001556020820151816001015560408201518160020160006101000a81548173ffffffffffffffffffffffffffffffffffffffff021916908373ffffffffffffffffffffffffffffffffffffffff160217905550606082015181600301556080820151816004015560a0820151816005015560c0820151816006015560e08201518160070160006101000a81548160ff0219169083151502179055506101008201518160080155610120820151816009015561014082015181600a0155905050600860008154809291906129e490613bb6565b919050555060006002600085815260200190815260200160002060060160016101000a81548173ffffffffffffffffffffffffffffffffffffffff021916908373ffffffffffffffffffffffffffffffffffffffff16021790555060006002600085815260200190815260200160002060040181905550600060026000858152602001908152602001600020600501819055506000600260008581526020019081526020016000206007018190555060006002600085815260200190815260200160002060080181905550505b5b5050565b828054612ac290613b84565b90600052602060002090601f016020900481019282612ae45760008555612b2b565b82601f10612afd57805160ff1916838001178555612b2b565b82800160010185558215612b2b579182015b82811115612b2a578251825591602001919060010190612b0f565b5b509050612b389190612c23565b5090565b828054828255906000526020600020908101928215612b78579160200282015b82811115612b77578251825591602001919060010190612b5c565b5b509050612b859190612c23565b5090565b6040518060800160405280606081526020016060815260200160008152602001600081525090565b6040518061016001604052806000815260200160008152602001600073ffffffffffffffffffffffffffffffffffffffff168152602001600081526020016000815260200160008152602001600081526020016000151581526020016000815260200160008152602001600081525090565b5b80821115612c3c576000816000905550600101612c24565b5090565b6000612c53612c4e8461385e565b61382d565b905082815260208101848484011115612c6b57600080fd5b612c76848285613b42565b509392505050565b600081359050612c8d81613ce6565b92915050565b600081359050612ca281613cfd565b92915050565b600082601f830112612cb957600080fd5b8135612cc9848260208601612c40565b91505092915050565b600081359050612ce181613d14565b92915050565b600060208284031215612cf957600080fd5b6000612d0784828501612c7e565b91505092915050565b600080600060608486031215612d2557600080fd5b6000612d3386828701612c7e565b9350506020612d4486828701612c93565b9250506040612d5586828701612cd2565b9150509250925092565b60008060408385031215612d7257600080fd5b6000612d8085828601612c7e565b925050602083013567ffffffffffffffff811115612d9d57600080fd5b612da985828601612ca8565b9150509250929050565b600080600060608486031215612dc857600080fd5b6000612dd686828701612c7e565b935050602084013567ffffffffffffffff811115612df357600080fd5b612dff86828701612ca8565b9250506040612e1086828701612cd2565b9150509250925092565b600060208284031215612e2c57600080fd5b6000612e3a84828501612cd2565b91505092915050565b600080600060608486031215612e5857600080fd5b6000612e6686828701612cd2565b9350506020612e7786828701612c93565b9250506040612e8886828701612c93565b9150509250925092565b60008060408385031215612ea557600080fd5b6000612eb385828601612cd2565b9250506020612ec485828601612cd2565b9150509250929050565b600080600060608486031215612ee357600080fd5b6000612ef186828701612cd2565b9350506020612f0286828701612cd2565b9250506040612f1386828701612cd2565b9150509250925092565b6000612f2983836133cc565b6101608301905092915050565b6000612f428383613517565b60208301905092915050565b612f5781613af0565b82525050565b612f6681613af0565b82525050565b6000612f77826138ae565b612f8181856138e9565b9350612f8c8361388e565b8060005b83811015612fbd578151612fa48882612f1d565b9750612faf836138cf565b925050600181019050612f90565b5085935050505092915050565b6000612fd5826138b9565b612fdf81856138fa565b9350612fea8361389e565b8060005b8381101561301b5781516130028882612f36565b975061300d836138dc565b925050600181019050612fee565b5085935050505092915050565b6000613033826138b9565b61303d818561390b565b93506130488361389e565b8060005b838110156130795781516130608882612f36565b975061306b836138dc565b92505060018101905061304c565b5085935050505092915050565b61308f81613b02565b82525050565b61309e81613b02565b82525050565b6130ad81613b0e565b82525050565b6130bc81613b0e565b82525050565b60006130cd826138c4565b6130d7818561391c565b93506130e7818560208601613b51565b6130f081613cd5565b840191505092915050565b6000613106826138c4565b613110818561392d565b9350613120818560208601613b51565b61312981613cd5565b840191505092915050565b600061314160148361392d565b91507f4e616d652063616e6e6f7420626520656d7074790000000000000000000000006000830152602082019050919050565b6000613181602c8361392d565b91507f4f6e6c792074686520476f7665726e6d656e742063616e206d696e742028766560008301527f726966792920686f7573657300000000000000000000000000000000000000006020830152604082019050919050565b60006131e760288361392d565b91507f4f6e6c7920746865206c616e646c6f72642063616e206163746976617465207460008301527f686520686f7573650000000000000000000000000000000000000000000000006020830152604082019050919050565b600061324d60268361392d565b91507f4f6e6c7920746865206c616e646c6f72642063616e206163636570742074686560008301527f206f6666657200000000000000000000000000000000000000000000000000006020830152604082019050919050565b60006132b360138361392d565b91507f5573657220616c726561647920657869737473000000000000000000000000006000830152602082019050919050565b60006132f3602a8361392d565b91507f4f6e6c792074656e616e7420616e64206c616e646c6f72642063616e2073657460008301527f20636f6c61746572616c000000000000000000000000000000000000000000006020830152604082019050919050565b600061335960138361392d565b91507f5573657220646f6573206e6f74206578697374000000000000000000000000006000830152602082019050919050565b600061339960148361392d565b91507f486f75736520616c7265616479206578697374730000000000000000000000006000830152602082019050919050565b610160820160008201516133e36000850182613517565b5060208201516133f66020850182613517565b5060408201516134096040850182612f4e565b50606082015161341c6060850182613517565b50608082015161342f6080850182613517565b5060a082015161344260a0850182613517565b5060c082015161345560c0850182613517565b5060e082015161346860e0850182613086565b5061010082015161347d6101008501826130a4565b506101208201516134926101208501826130a4565b506101408201516134a76101408501826130a4565b50505050565b600060808301600083015184820360008601526134ca82826130c2565b915050602083015184820360208601526134e48282612fca565b91505060408301516134f960408601826130a4565b50606083015161350c6060860182613517565b508091505092915050565b61352081613b38565b82525050565b61352f81613b38565b82525050565b600060208201905061354a6000830184612f5d565b92915050565b6000602082019050818103600083015261356a8184612f6c565b905092915050565b6000602082019050818103600083015261358c8184613028565b905092915050565b600060208201905081810360008301526135ad81613134565b9050919050565b600060208201905081810360008301526135cd81613174565b9050919050565b600060208201905081810360008301526135ed816131da565b9050919050565b6000602082019050818103600083015261360d81613240565b9050919050565b6000602082019050818103600083015261362d816132a6565b9050919050565b6000602082019050818103600083015261364d816132e6565b9050919050565b6000602082019050818103600083015261366d8161334c565b9050919050565b6000602082019050818103600083015261368d8161338c565b9050919050565b600060208201905081810360008301526136ae81846134ad565b905092915050565b6000610140820190506136cc600083018d613526565b6136d9602083018c612f5d565b81810360408301526136eb818b6130fb565b90506136fa606083018a613095565b6137076080830189613526565b61371460a0830188613526565b61372160c0830187613095565b61372e60e0830186612f5d565b61373c610100830185613526565b61374a610120830184613526565b9b9a5050505050505050505050565b600060408201905061376e6000830185613526565b61377b60208301846130b3565b9392505050565b600061016082019050613798600083018e613526565b6137a5602083018d613526565b6137b2604083018c612f5d565b6137bf606083018b613526565b6137cc608083018a613526565b6137d960a0830189613526565b6137e660c0830188613526565b6137f360e0830187613095565b6138016101008301866130b3565b61380f6101208301856130b3565b61381d6101408301846130b3565b9c9b505050505050505050505050565b6000604051905081810181811067ffffffffffffffff8211171561385457613853613ca6565b5b8060405250919050565b600067ffffffffffffffff82111561387957613878613ca6565b5b601f19601f8301169050602081019050919050565b6000819050602082019050919050565b6000819050602082019050919050565b600081519050919050565b600081519050919050565b600081519050919050565b6000602082019050919050565b6000602082019050919050565b600082825260208201905092915050565b600082825260208201905092915050565b600082825260208201905092915050565b600082825260208201905092915050565b600082825260208201905092915050565b600061394982613b0e565b915061395483613b0e565b9250817f7fffffffffffffffffffffffffffffffffffffffffffffffffffffffffffffff0383136000831215161561398f5761398e613c48565b5b817f80000000000000000000000000000000000000000000000000000000000000000383126000831216156139c7576139c6613c48565b5b828201905092915050565b60006139dd82613b38565b91506139e883613b38565b9250827fffffffffffffffffffffffffffffffffffffffffffffffffffffffffffffffff03821115613a1d57613a1c613c48565b5b828201905092915050565b6000613a3382613b0e565b9150613a3e83613b0e565b9250827f800000000000000000000000000000000000000000000000000000000000000001821260008412151615613a7957613a78613c48565b5b827f7fffffffffffffffffffffffffffffffffffffffffffffffffffffffffffffff018213600084121615613ab157613ab0613c48565b5b828203905092915050565b6000613ac782613b38565b9150613ad283613b38565b925082821015613ae557613ae4613c48565b5b828203905092915050565b6000613afb82613b18565b9050919050565b60008115159050919050565b6000819050919050565b600073ffffffffffffffffffffffffffffffffffffffff82169050919050565b6000819050919050565b82818337600083830152505050565b60005b83811015613b6f578082015181840152602081019050613b54565b83811115613b7e576000848401525b50505050565b60006002820490506001821680613b9c57607f821691505b60208210811415613bb057613baf613c77565b5b50919050565b6000613bc182613b38565b91507fffffffffffffffffffffffffffffffffffffffffffffffffffffffffffffffff821415613bf457613bf3613c48565b5b600182019050919050565b6000613c0a82613b0e565b91507f8000000000000000000000000000000000000000000000000000000000000000821415613c3d57613c3c613c48565b5b816000039050919050565b7f4e487b7100000000000000000000000000000000000000000000000000000000600052601160045260246000fd5b7f4e487b7100000000000000000000000000000000000000000000000000000000600052602260045260246000fd5b7f4e487b7100000000000000000000000000000000000000000000000000000000600052604160045260246000fd5b6000601f19601f8301169050919050565b613cef81613af0565b8114613cfa57600080fd5b50565b613d0681613b0e565b8114613d1157600080fd5b50565b613d1d81613b38565b8114613d2857600080fd5b5056fea2646970667358221220798a34bea8eb9119e1a912c5b4110d21ca6183919b1ee709eb9e16e1d4a369fd64736f6c63430008000033",
  "linkReferences": {},
  "deployedLinkReferences": {}
}